:020000040800F2
:10000000701B0020B51A0008992100085D21000826
:10001000151B00088121000889210008000000004C
:10002000000000000000000000000000151B000898
:100030009121000800000000151B0008951D000814
:10004000151B0008151B0008151B0008151B0008D0
:10005000151B0008151B0008151B0008151B0008C0
:10006000151B0008151B0008151B0008151B0008B0
:10007000151B0008151B0008151B0008151B0008A0
:10008000053C0008151B000841100008151B00085E
:10009000151B0008151B0008151B0008191800087F
:1000A000151B00082D3C0008151B0008151B000837
:1000B000151B0008151B00082D110008151B000852
:1000C000151B0008151B0008151B0008151B000850
:1000D000151B0008511F0008151B0008151B000800
:1000E000151B0008151B0008151B00080000000068
:1000F0000000000000000000000000000000000000
:1001000000000000000000005FF808F180B584B036
:1001100000AF4D4BFB60FB6803F5805304330822AE
:100120001A60FB6803F5805304221A60FB6803F52C
:10013000805304331B68FA6802F58052126802FB90
:1001400003F2FB6803F5805308331A60FB68BB6059
:10015000FB6803F58053143380221A60FB6803F5B3
:100160008053183380221A60FB6803F580531C33D8
:1001700000221A60FB6803F5815300221A60FB68B5
:1001800003F580531033314A1A600121042002F034
:1001900073FC1023FB71FF23BB800323BB713B1D4A
:1001A00019462B4801F0BAFC294BDB681A46FB685C
:1001B00003F5815304331A60FB6803F580530C3355
:1001C00000221A6000220D21012002F0DFFD02460C
:1001D000FB6803F581530C331A6000220C210120C7
:1001E00002F0D4FD0246FB6803F5815310331A6018
:1001F00000220E21012002F0C9FD0246FB6803F532
:10020000815308331A6000220121012002F0BEFD53
:100210000246FB6803F5815314331A600022002163
:10022000012002F0B3FD0246FB6803F58153183349
:100230001A60B86800F00EF8B86800F029F8BB68DA
:1002400018461037BD4680BD880000201C480008B5
:100250000008014080B584B000AF78607B68BB6067
:100260000023FB600DE0FB6804335B02BA681344B3
:100270004FF40072FF21184604F0C2F9FB68013305
:10028000FB60FB68032BEEDD00BF1037BD4680BD71
:1002900080B584B000AF78607B68BB600023FB60F2
:1002A00010E0FB685B02BA68D018FB6804335B029D
:1002B000BA6813444FF40072194604F02BF9FB6836
:1002C0000133FB60FB68032BEBDD00BF1037BD463D
:1002D00080BD00BF80B489B000AFF860B9607A60BB
:1002E000FB70FB68FB61FB6903F580531B685A01D7
:1002F000BB689A4240F2B180FB6903F58053043336
:100300001B681A017B689A4240F2A7800023BB61F8
:1003100000237B610023FB747B6803F003037B6194
:100320007B681B09FB747B6803F00F037B607B68B1
:10033000C3F10F037B60BB68DB089A007B689B08F6
:100340001344DA00BB6803F007031344BB61FB7876
:10035000002B02D0012B40D080E097F82830002BF2
:100360001CD1FA697B695B021A44BB69134403F52B
:1003700000631B785AB2FB7C012101FA03F35BB2E4
:1003800013435BB2D9B2FA697B695B021A44BB6959
:10039000134403F500630A461A705FE0FA697B694B
:1003A0005B021A44BB69134403F500631B785AB21D
:1003B000FB7C012101FA03F35BB2DB435BB2134028
:1003C0005BB2D9B2FA697B695B021A44BB69134418
:1003D00003F500630A461A7040E097F82830012BB5
:1003E0001CD1FA697B695B021A44BB69134403F5AB
:1003F00000631B785AB2FB7C012101FA03F35BB264
:1004000013435BB2D9B2FA697B695B021A44BB69D8
:10041000134403F500630A461A701FE0FA697B690A
:100420005B021A44BB69134403F500631B785AB29C
:10043000FB7C012101FA03F35BB2DB435BB21340A7
:100440005BB2D9B2FA697B695B021A44BB69134497
:1004500003F500630A461A7000E000BF2437BD466A
:1004600080BC704780B582B000AF474B7B607B6833
:1004700003F5815314331B680121184602F0D2FCA6
:100480007B6803F580530C331B68032B6ED801A2E5
:1004900052F823F0A5040008D70400080905000855
:1004A0003B0500087B6803F580530C3301221A607A
:1004B0007B6803F581530C331B680021184602F05A
:1004C000B1FC7B6803F5815310331B68002118468B
:1004D00002F0A8FC4BE07B6803F581530C331B68EA
:1004E0000121184602F09EFC7B6803F5815310330E
:1004F0001B680021184602F095FC7B6803F58053C9
:100500000C3302221A6032E07B6803F581530C330E
:100510001B680021184602F085FC7B6803F58153B7
:1005200010331B680121184602F07CFC7B6803F540
:1005300080530C3303221A6019E07B6803F5805363
:100540000C3300221A607B6803F581530C331B685F
:100550000121184602F066FC7B6803F581531033D5
:100560001B680121184602F05DFC00E000BF7B68BB
:1005700003F5815314331B680021184602F052FC26
:1005800000BF0837BD4680BD8800002080B400AFA2
:10059000054B03F580530C331B685B02024A13447E
:1005A0001846BD4680BC70478800002080B58CB0DE
:1005B00002AFF860B9607A603B60FB68002B39D00D
:1005C000FB68FB61FB6903F5805310331B68DB7824
:1005D000FB76FA7E7B681344002B2DDB00237B62C5
:1005E00000233B6220E0BA687B6AD1183B6A3A6814
:1005F00013441A7897F83430009313467A68F868F1
:1006000000F0EEF878617B69002B07DD7A6A7B6980
:1006100013447B627B6A01337B6202E07B69002BBF
:100620000CDB3B6A01333B6297F830203B6A9A420D
:10063000D9DC04E000BF02E000BF00E000BF2837C3
:10064000BD4680BD80B58CB002AFF860B9607A60FD
:100650003B60FB68002B00F084803A6B7B68D31A08
:100660007B623A68BB68D31A3B627B6A002B06DA6E
:100670007B6A5B427B624FF0FF33BB6101E0012389
:10068000BB613B6A002B06DA3B6A5B423B624FF080
:10069000FF33FB6101E00123FB617B6A5B007B624E
:1006A0003B6A5B003B62B9687A6897F834000123C3
:1006B00000930346F868FFF70DFE3A6A7B6A9A4298
:1006C00027DD3B6A5B107A6AD31A7B611CE07B6989
:1006D000002B07DB7A68BB6913447B607A693B6A4D
:1006E000D31A7B61BA68FB691344BB607A697B6A81
:1006F00013447B61B9687A6897F83400012300934A
:100700000346F868FFF7E6FDBA683B689A42DED117
:1007100028E07B6A5B103A6AD31A3B611CE03B69B4
:10072000002B07DBBA68FB691344BB603A697B6A3C
:10073000D31A3B617A68BB6913447B603A693B6AB0
:1007400013443B61B9687A6897F834000123009339
:100750000346F868FFF7BEFD7A683B6B9A42DED12C
:1007600000E000BF2837BD4680BD00BF80B588B01F
:1007700002AFF860B9607A603B60FB68002B15D06F
:10078000BB687B610DE097F8243001933B6A0093CE
:100790007B697A687969F868FFF754FF7B690133F0
:1007A0007B617A693B689A42EDDD00E000BF183753
:1007B000BD4680BD80B485B000AF786039607B688D
:1007C000002B08D07B68FB60FB6803F58053103377
:1007D0003A681A6000E000BF1437BD4680BC70471D
:1007E00080B58EB002AFF860B9607A60FB70FB68CC
:1007F000002B01D100234BE1FB68FB61FB78FB760A
:10080000FB6903F5805310331B68DB78BB76FB7EF6
:10081000202B15D12021F86800F03EF97861BA68E4
:100820007B69D118BA7E7B68134401220192009340
:100830000B467A68B968F868FFF798FF7B6927E18B
:10084000002387F82F30BB7E0733002B00DA0733F5
:10085000DB10FB74FB6903F5805310331B681B79B5
:10086000BB74FB6903F5805310331B685B797B74A1
:100870000023BB85FA7EBB7C9A4205D3FA7EB97C05
:100880007B7C0B449A4201DB002301E1FA7EBB7CB6
:10089000D31AFB76FB6903F5805310331B681B7872
:1008A000002B20D1FB6903F5805310331B68013303
:1008B0001B78002B17D1FB6903F5805310331B689D
:1008C0009B7887F82F30FB7E9BB2FA7C92B202FBBA
:1008D00003F39BB297F82F2092B202FB03F39BB273
:1008E0000633BB8532E0002387F82B3012E0FB692A
:1008F00003F5805310331A6897F82B3006331344EE
:100900001B789AB2BB8D1344BB8597F82B3001330B
:1009100087F82B3097F82B20FB7E9A42E7D3FB7C9D
:100920009BB2BA8D02FB03F39AB27B7C9BB2134459
:100930009BB20633BB85FB6903F5805310331A68FD
:10094000FB7E063313441B7887F82F3097F82F303F
:100950005A42BB689A4204DCBB7E5A427B689A4288
:1009600002DD97F82F3093E0002387F82A3086E0E5
:10097000FB7C013B87F8293078E0FB6903F5805365
:1009800010331A68B98D97F82A300B4497F829105C
:1009900097F82F0000FB01F10B4413441B783B74C4
:1009A00097F82930DB007B6297F82920FB7C013B1C
:1009B0009A4205D1FB7C012B02D9BB7E083B7B62AE
:1009C000002387F8233048E097F823207B6A1A44F5
:1009D00097F82930DB009A423ADB97F823207B6AAC
:1009E0001A44BB7E9A4233DC3A7C97F8233042FAB1
:1009F00003F303F00103002B15D097F82A20BB68FE
:100A0000134419467A687B6A1A4497F823301344D2
:100A1000184697F838200123009313460246F868D9
:100A2000FFF758FC14E097F82A20BB6813441946D6
:100A30007A687B6A1A4497F823301344184697F86B
:100A400038200023009313460246F868FFF742FC63
:100A500097F82330013387F8233097F82330072B9A
:100A6000B2D997F82930013B87F8293097F8293017
:100A7000FD2B82D997F82A30013387F82A3097F86E
:100A80002A2097F82F309A42FFF472AF97F82F3050
:100A900018463037BD4680BD80B487B000AF78605F
:100AA0000B46FB707B68002B01D100234CE07B6878
:100AB0003B61FB78FB75FB7D202B01D16523FB752A
:100AC0000023BB753B6903F5805310331B681B790A
:100AD000FB733B6903F5805310331B685B79BB7371
:100AE000FA7DFB7B9A4205D3FA7DF97BBB7B0B44F5
:100AF0009A4201DB002327E0FA7DFB7BD31AFB75CA
:100B00003B6903F5805310331B681B78002B10D111
:100B10003B6903F5805310331B6801331B78002BAE
:100B200007D13B6903F5805310331B689B78BB7575
:100B300009E03B6903F5805310331A68FB7D0633E7
:100B400013441B78BB75BB7D18461C37BD4680BC63
:100B5000704700BF80B584B000AF78600023FB60B1
:100B60000FE07B681B7819460A48FFF795FF02469D
:100B7000FB681344FB607B6801337B60FB680133D7
:100B8000FB607B681B78002BEBD1FB6818461037A5
:100B9000BD4680BD8800002080B485B000AF78607D
:100BA00039600023FB817B681B88FB817B682E4AB0
:100BB000934213D07B682D4A93420FD07B68B3F1E8
:100BC000804F0BD07B682A4A934207D07B68294A22
:100BD000934203D07B68284A934208D1FB8923F0D3
:100BE0007003FB813B685A88FB891343FB817B6858
:100BF000224A93420CD07B68214A934208D0FB8959
:100C000023F44073FB813B68DA88FB891343FB8143
:100C10007B68FA891A803B689A887B689A853B686A
:100C20001A887B681A857B680F4A93420FD07B68CD
:100C30000E4A93420BD07B68124A934207D07B68DE
:100C4000114A934203D07B68104A934204D13B6817
:100C50001B7A9AB27B681A867B6801229A8200BF4F
:100C60001437BD4680BC7047002C01400034014061
:100C70000004004000080040000C0040001000404C
:100C80000014004000400140004401400048014081
:100C900080B485B000AF7860396000237B81002389
:100CA000FB810023BB817B681B8C9BB223F010036C
:100CB0009AB27B681A847B681B8CFB817B689B885B
:100CC000BB817B681B8B7B817B8923F4E0437B8129
:100CD0007B8923F440737B813B681B881B029AB29B
:100CE0007B8913437B81FB8923F02003FB813B68D5
:100CF0001B891B019AB2FB891343FB813B685B880C
:100D00001B019AB2FB891343FB817B68224A934201
:100D100003D07B68214A93422BD1FB8923F08003C7
:100D2000FB813B685B891B019AB2FB891343FB8102
:100D3000FB8923F04003FB813B689B881B019AB22F
:100D4000FB891343FB81BB8923F48063BB81BB898F
:100D500023F40063BB813B689B899B009AB2BB89EB
:100D60001343BB813B68DB899B009AB2BB89134369
:100D7000BB817B68BA899A807B687A891A833B68D1
:100D8000DA887B681A877B68FA891A8400BF14376F
:100D9000BD4680BC704700BF002C014000340140BC
:100DA00080B485B000AF7860396000237B81002378
:100DB000FB810023BB817B681B8C9BB223F4807377
:100DC0009AB27B681A847B681B8CFB817B689B884A
:100DD000BB817B689B8B7B817B8923F070037B814C
:100DE0007B8923F003037B813B681A887B8913434B
:100DF0007B81FB8923F40073FB813B681B891B0209
:100E00009AB2FB891343FB813B685B881B029AB251
:100E1000FB891343FB817B68224A934203D07B68A2
:100E2000214A93422BD1FB8923F40063FB813B6869
:100E30005B891B029AB2FB891343FB81FB8923F474
:100E40008063FB813B689B881B029AB2FB8913433A
:100E5000FB81BB8923F48053BB81BB8923F40053FE
:100E6000BB813B689B891B019AB2BB891343BB8141
:100E70003B68DB891B019AB2BB891343BB817B684A
:100E8000BA899A807B687A899A833B68DA887B681A
:100E90009A877B68FA891A8400BF1437BD4680BCE4
:100EA000704700BF002C01400034014080B483B083
:100EB00000AF78600B46FB70FB78002B08D07B6896
:100EC0001B889BB243F001039AB27B681A8007E04B
:100ED0007B681B889BB223F001039AB27B681A805F
:100EE00000BF0C37BD4680BC704700BF80B483B0E4
:100EF00000AF78600B46FB70FB78002B0CD07B6852
:100F0000B3F844309BB26FEA43436FEA53439AB25B
:100F10007B68A3F8442009E07B68B3F844309BB2B7
:100F2000C3F30E039AB27B68A3F8442000BF0C37CA
:100F3000BD4680BC704700BF80B483B000AF78600E
:100F40000B467B8013467B707B78002B08D07B6838
:100F50009B899AB27B8813439AB27B689A8109E095
:100F60007B689B899AB27B88DB439BB213409AB221
:100F70007B689A8100BF0C37BD4680BC704700BFBC
:100F800080B483B000AF78600B467B8013467B70E3
:100F90007B78002B08D07B689B899AB27B881343AF
:100FA0009AB27B689A8109E07B689B899AB27B88B8
:100FB000DB439BB213409AB27B689A8100BF0C3727
:100FC000BD4680BC704700BF80B485B000AF78607C
:100FD0000B467B800023FB730023BB8100237B81B6
:100FE0007B681B8A9AB27B881340BB817B689B8994
:100FF0009AB27B8813407B81BB89002B05D07B890B
:10100000002B02D00123FB7301E00023FB73FB7B69
:1010100018461437BD4680BC704700BF80B483B00B
:1010200000AF78600B467B807B88DB439AB27B689D
:101030001A8200BF0C37BD4680BC7047000000001C
:1010400098B500AF4FF40871194801F099FF0346B5
:10105000012B22D14FF40871154801F0BBFF144851
:1010600001F082FF0346184602F08CFF0CA3D3E97F
:10107000002302F0EDFF03460C46184621460AA362
:10108000D3E9002303F00EF903460C461846214627
:1010900003F0F0F90246074B1A6000BF98BD00BF8D
:1010A0000000000000A074400000000000FEAF40FF
:1010B000002401400000002080B586B000AF1C2352
:1010C000FB75C023BB820323BB750121082001F0FF
:1010D000D3FC07F114031946114800F01FFD01214C
:1010E0004FF4001001F0E6FC0E4B7B600023FB8107
:1010F0004FF480433B824BF6FF737B8100233B819F
:101100000023BB813B1D1946074802F053FA012119
:10111000054802F011FB00BF1837BD4680BD00BF77
:10112000000C0140801A06000054004080B500AF5A
:1011300001210848FFF748FF0346012B08D1012190
:101140000448FFF76BFF044B1B680133024A13602E
:1011500000BF80BD000800407000002080B400AFD8
:10116000034B00221A6000BFBD4680BC704700BF21
:101170007000002080B400AF024B1B681846BD46CB
:1011800080BC70477000002080B584B000AF7860EC
:101190007968104802F08CFB0346FB73FFF7DEFF13
:1011A00005E079680B4802F083FB0346FB73FB7B89
:1011B000002B04D1FFF7DEFF0346C72BF1D9FB7BE1
:1011C000002B01D1002300E0012318461037BD4653
:1011D00080BD00BF0054004080B582B000AF034620
:1011E0000A46FB8013467B7101211E4802F0C4FAB7
:1011F0001D48FFF7C9FF0346002B01D100232CE057
:101200000022D021174802F035FB1848FFF7BCFF39
:101210000346002B01D100231FE0FB88DBB21946F7
:10122000104802F009FB1248FFF7AEFF0346002BFF
:1012300001D1002311E07B7919460A4802F0FCFA3B
:101240000B48FFF7A1FF0346002B01D1002304E068
:101250000121044802F0B0FA012318460837BD46C0
:1012600080BD00BF00540040010003008200070061
:101270008400070080B584B000AF03463960FB806E
:1012800013467B710121244802F076FA2348FFF7C8
:101290007BFF0346002B01D1002339E00022D0213F
:1012A0001D4802F0E7FA1E48FFF76EFF0346002BC9
:1012B00001D100232CE0FB88DBB21946164802F06E
:1012C000BBFA1848FFF760FF0346002B01D100234B
:1012D0001EE00023FB6012E0FB683A6813441B78B1
:1012E00019460D4802F0A8FA0E48FFF74DFF0346D5
:1012F000002B01D100230BE0FB680133FB607A79FE
:10130000FB689A42E8DC0121034802F055FA012308
:1013100018461037BD4680BD005400400100030050
:10132000820007008400070080B582B000AF7860BB
:101330000B467B800121294802F01EFA2848FFF75E
:1013400023FF0346002B01D1002343E00022D021DC
:10135000224802F08FFA2348FFF716FF0346002BBE
:1013600001D1002336E07B88DBB219461B4802F02E
:1013700063FA1D48FFF708FF0346002B01D1002345
:1013800028E00121154802F0F7F91548FFF7FCFEA7
:101390000346002B01D100231CE00122D1210F487C
:1013A00002F068FA1148FFF7EFFE0346002B01D167
:1013B00000230FE0094802F04FFA03461A467B6803
:1013C0001A700021054802F017FA0121034802F0C3
:1013D000F3F9012318460837BD4680BD005400408C
:1013E00001000300820007008400070040000300A2
:1013F00090B587B000AFF8600B467A607B81012121
:101400003B4802F0B9F93B48FFF7BEFE0346002B0C
:1014100001D1002368E00022D021354802F02AFAE9
:101420003548FFF7B1FE0346002B01D100235BE0F6
:101430007B89DBB219462E4802F0FEF92F48FFF7F0
:10144000A3FE0346002B01D100234DE001212848D3
:1014500002F092F92748FFF797FE0346002B01D1CF
:10146000002341E00122D121214802F003FA0023A8
:101470007B6134E07B685A1E7B699A4218D1002157
:101480001B4802F0B9F90121194802F095F91C48EE
:10149000FFF77AFE0346002B01D1002324E07B698D
:1014A000FA68D418124802F0D7F90346237013E003
:1014B00001210F4802F0A0F91148FFF765FE03462D
:1014C000002B01D100230FE07B69FA68D41808488B
:1014D00002F0C2F9034623707B6901337B617A69AC
:1014E0007B689A42C6D3012318461C37BD4690BD7F
:1014F0000054004001000300820007008400070040
:101500004000030080B586B000AF78607B681B6840
:10151000674A82FB03129210DB17D31A1B0158B2E1
:101520007B681A68624B83FB02139910D317C91AA0
:101530000B469B000B445B00D11A4BB203435BB2DA
:10154000DBB23B737B685B68594A82FB03129210E3
:10155000DB17D31A1B0158B27B685A68544B83FBC4
:1015600002139910D317C91A0B469B000B445B005A
:10157000D11A4BB203435BB2DBB27B737B689B68CF
:101580004B4A82FB03129210DB17D31A1B0158B28D
:101590007B689A68464B83FB02139910D317C91ACC
:1015A0000B469B000B445B00D11A4BB203435BB26A
:1015B000DBB2BB737B68DB69012B05D1BB7B43F0DE
:1015C0002003DBB2BB7304E0BB7B23F02003DBB260
:1015D000BB73BB7B43F04003DBB2BB737B68DB6850
:1015E000DBB2FB737B681B69314A82FB03129210EA
:1015F000DB17D31A1B0158B27B681A692C4B83FB8B
:1016000002139910D317C91A0B469B000B445B00B9
:10161000D11A4BB203435BB2DBB23B747B685B69AC
:10162000234A82FB03129210DB17D31A1B0158B214
:101630007B685A691E4B83FB02139910D317C91A92
:101640000B469B000B445B00D11A4BB203435BB2C9
:10165000DBB27B747B689B69154A82FB0312921094
:10166000DB17D31A1B0158B27B689A69104B83FBB6
:1016700002139910D317C91A0B469B000B445B0049
:10168000D11A4BB203435BB2DBB2BB7407F10C035C
:10169000072219460020FFF7EDFD0346FB75054BB9
:1016A00002221A70FB7D18461837BD4680BD00BF68
:1016B0006766666678000020B0B58CB000AF07F1B1
:1016C00024030A220021184602F09AFF07F124039E
:1016D000072200211846FFF78BFE0346012B76D127
:1016E00097F824301B09DBB21A4613469B001344BB
:1016F0005B001A4697F8243003F00F0313447B6015
:1017000097F825301B09DBB21A4613469B00134499
:101710005B001A4697F8253003F00F031344BB60B3
:1017200097F826301B1103F0010213469B00134467
:101730005B001A4697F8263003F00F031344FB6052
:1017400097F827303B6197F8263003F02003002BF1
:1017500002D001233B6201E000233B6297F828306E
:101760001B09DBB21A4613469B0013445B001A4662
:1017700097F8283003F00F0313447B6197F8293062
:101780001B09DBB21A4613469B0013445B001A4642
:1017900097F8293003F00F031344BB6197F82A3000
:1017A0001B09DBB21A4613469B0013445B001A4622
:1017B00097F82A3003F00F031344FB61064B1D46D4
:1017C0003C1D0FCC0FC594E80F0085E80F0000BF4B
:1017D0003037BD46B0BD00BFC810002080B582B014
:1017E00000AFFB1D02211846FFF79EFD0346012BAB
:1017F0000ED1FB7903F04003002B09D1FB7943F0B4
:101800004003DBB2FB71FB7919460220FFF7E4FCD1
:1018100000BF0837BD4680BD80B500AF202001F075
:1018200071FB0346012B16D1202001F08FFB0B4BDF
:101830001B68184601F02CFB094B1B683B2B05D19C
:10184000074B00221A60074B02221A70044B1B68D8
:101850000133034A136000BF80BD00BFC4100020E5
:10186000740000207800002080B500AF154A154BA9
:101870001B6843F0010313601249124B5A68124B64
:1018800013404B600F4A0F4B1B6823F0847323F403
:10189000803313600B4A0B4B1B6823F480231360C7
:1018A000084A084B5B6823F4FE035360054B4FF472
:1018B0001F029A6000F078F8044B4FF000629A60C3
:1018C00000BF80BD001002400000FFF800ED00E006
:1018D00080B485B000AF0023FB600023BB60002311
:1018E0007B602C4B5B6803F00C03FB60FB68042BF4
:1018F00007D0082B09D0002B33D1274B274A1A6079
:1019000033E0254B254A1A602FE0224B5B6803F435
:101910007013BB601F4B5B6803F480337B60BB6854
:101920009B0C0233BB607B68002B06D1BB681C4A52
:1019300002FB03F3184A136017E0164B5B6803F4CD
:101940000033002B06D0BB68154A02FB03F3124A92
:1019500013600AE0BB68114A02FB03F30E4A1360EE
:1019600003E00D4B0D4A1A6000BF0A4B5B6803F0A1
:10197000F0031B090B4AD35CDBB2FB60064B1A6811
:10198000FB6822FA03F3044A136000BF1437BD4614
:1019900080BC7047001002400400002000127A0052
:1019A00000093D000800002080B500AF00F002F8FB
:1019B00000BF80BD80B483B000AF00237B600023F4
:1019C0003B603A4A394B1B6843F480331360374B12
:1019D0001B6803F400333B607B6801337B603B682A
:1019E000002B03D17B68B3F5A06FF0D12F4B1B68A0
:1019F00003F40033002B02D001233B6001E00023FD
:101A00003B603B68012B4BD1294A294B1B6843F0B3
:101A100010031360264A264B1B6823F00303136050
:101A2000234A234B1B6843F0020313601F4A1F4BDA
:101A30005B6853601D4A1D4B5B6853601B4A1B4B20
:101A40005B6843F480635360184A184B5B6823F467
:101A50007C135360154A154B5B6843F4E8135360DD
:101A6000124A124B1B6843F08073136000BF0F4B88
:101A70001B6803F00073002BF9D00C4A0B4B5B681A
:101A800023F003035360094A084B5B6843F00203E9
:101A9000536000BF054B5B6803F00C03082BF9D1C2
:101AA00000BF0C37BD4680BC704700BF001002402D
:101AB0000020024080B582B000AF114B7B60114B1B
:101AC0003B6007E03B681A1D3A607A68111D796037
:101AD00012681A603B680C4A9342F3D30B480C49D6
:101AE0004FF000028842B8BF40F8042BFADBFFF742
:101AF000BBFE00F055FB00BF0837BD4680BD00BFF0
:101B0000AD6D000800000020700000207000002073
:101B10007017002080B400AFFEE700BF80B489B02A
:101B200000AF786039600023FB6100233B61002334
:101B3000BB610023FB6000237B610023BB603B682B
:101B4000DB7803F00F03FB613B68DB7803F01003E5
:101B5000002B05D03B689B781A46FB691343FB6159
:101B60003B681B88DBB2002B44D07B681B687B6121
:101B70000023BB6138E00122BB6902FA03F3FB607A
:101B80003B681B881A46FB6813403B613A69FB6857
:101B90009A4226D1BB699B00FB600F22FB6802FAC8
:101BA00003F3BB60BB68DB437A6913407B61FA696E
:101BB000FB6802FA03F37A6913437B613B68DB78C5
:101BC000282B05D10122BB699A407B685A6108E045
:101BD0003B68DB78482B04D10122BB699A407B68C3
:101BE0001A61BB690133BB61BB69072BC3D97B6831
:101BF0007A691A603B681B88FF2B46D97B685B6853
:101C00007B610023BB613AE0BB690833012202FA21
:101C100003F3FB603B681B881A46FB6813403B617B
:101C20003A69FB689A4227D1BB699B00FB600F228F
:101C3000FB6802FA03F3BB60BB68DB437A691340BD
:101C40007B61FA69FB6802FA03F37A6913437B61EB
:101C50003B68DB78282B05D1BB69083301229A4009
:101C60007B685A613B68DB78482B05D1BB69083338
:101C700001229A407B681A61BB690133BB61BB6971
:101C8000072BC1D97B687A695A6000BF2437BD46EB
:101C900080BC704780B483B000AF78600B467B8017
:101CA0007A887B681A6100BF0C37BD4680BC7047DC
:101CB00080B483B000AF78600B467B807A887B6805
:101CC0005A6100BF0C37BD4680BC704780B483B0FA
:101CD00000AF0346FB71084997F907305B09FA79B1
:101CE00002F01F02012000FA02F241F8232000BF97
:101CF0000C37BD4680BC704700E100E080B483B083
:101D000000AF03463960FB7197F90730002B0BDAFF
:101D10000D49FB7903F00F03043B3A68D2B212017C
:101D2000D2B20B441A7609E0084997F907303A68AD
:101D3000D2B21201D2B20B4483F8002300BF0C3799
:101D4000BD4680BC704700BF00ED00E000E100E050
:101D500080B582B000AF78607B68B3F1807F01D33B
:101D6000012311E00A4A7B6823F07F43013B536063
:101D70000F214FF0FF30FFF7C1FF054B00229A60A3
:101D8000034B07221A60002318460837BD4680BD62
:101D900010E000E080B400AF094B1B68FF2B05D1B9
:101DA000074B00221A60074B02221A70044B1B6873
:101DB0000133034A136000BFBD4680BC704700BFBB
:101DC000740000207800002080B483B000AF034688
:101DD0003960FB71FB79303B362B00F2B18001A2F8
:101DE00052F823F0C11E0008C91E0008D11E0008C9
:101DF000D91E0008E11E0008E91E0008F11E0008B7
:101E0000F91E0008011F0008091F0008411F0008F3
:101E1000411F0008411F0008411F0008411F000822
:101E2000411F0008411F0008111F0008191F00086A
:101E3000211F0008291F0008311F0008391F000852
:101E4000411F0008411F0008411F0008411F0008F2
:101E5000411F0008411F0008411F0008411F0008E2
:101E6000411F0008411F0008411F0008411F0008D2
:101E7000411F0008411F0008411F0008411F0008C2
:101E8000411F0008411F0008411F0008411F0008B2
:101E9000411F0008411F0008411F0008411F0008A2
:101EA000411F0008411F0008111F0008191F0008EA
:101EB000211F0008291F0008311F0008391F0008D2
:101EC0003B6800221A703DE03B6801221A7039E03D
:101ED0003B6802221A7035E03B6803221A7031E039
:101EE0003B6804221A702DE03B6805221A7029E035
:101EF0003B6806221A7025E03B6807221A7021E031
:101F00003B6808221A701DE03B6809221A7019E02C
:101F10003B680A221A7015E03B680B221A7011E028
:101F20003B680C221A700DE03B680D221A7009E024
:101F30003B680E221A7005E03B680F221A7001E020
:101F4000002300E0012318460C37BD4680BC7047D3
:101F500080B582B000AF40F22551384801F082F9D7
:101F60000346012B65D1354801F06CF90346FB713E
:101F7000FB79242B47D1324B1B68002B39D000232F
:101F80003B712F4B1B68023B2E4AD35C3A1D114616
:101F90001846FFF719FF0346002B2AD03B791B0197
:101FA000BB71274B1B68013B264AD35C3A1D114687
:101FB0001846FFF709FF0346002B1AD03A79BB7980
:101FC0001343BB711E4B1B68023B19461D4800F0B2
:101FD00041F803467B71BA797B799A4209D1194954
:101FE000194802F05BFB194B01221A70184B0022B2
:101FF0001A604FF400720021124802F001FB104BEE
:1020000000221A6015E00E4B1B685A1C0C490A602E
:102010000C49FA79CA540A4B1B68B3F5007F08D300
:102020004FF400720021074802F0EAFA044B002244
:102030001A6000BF0837BD4680BD00BF00380140B0
:102040007C000020F01000200815002078000020FF
:102050007400002080B485B000AF78603960002340
:10206000FB730023BB6009E0BB687A6813441A78ED
:10207000FB7B5340FB73BB680133BB60BA683B68B2
:102080009A42F1DBFB7B18461437BD4680BC704793
:1020900080B582B000AF0346FB8045F2555001F099
:1020A000D7FD032001F0E4FDFA8813469B0013449A
:1020B000002B00DA03339B109BB2184601F0E8FDB9
:1020C00001F0F6FD01F000FE00BF0837BD4680BDFF
:1020D00080B500AF7D2000F00BFD0346002B03D040
:1020E00000F040FD012300E00023184680BD00BF42
:1020F00080B483B000AF78607B681B680F4A1360C0
:102100007B685B680E4A13607B689B680D4A1360AE
:102110007B68DB680C4A13607B681B690B4A1360A1
:102120007B685B690A4A13607B689B69094A136094
:102130007B68DB69084A1360FEE700BFEC100020F3
:1021400008170020F8140020E810002004150020D3
:10215000F4140020FC1400200015002080B400AF0F
:102160001EF0040F0CBFEFF30880EFF309808169C4
:10217000004A1047F120000800BFBD4680BC7047F0
:1021800080B400AFFEE700BF80B400AFFEE700BF41
:1021900080B400AFFEE700BF80B400AFFEE700BF31
:1021A00090B5AFB002AFFFF793FBFFF791FF4FF48D
:1021B0007A70FFF76DFFFDF7A9FF0246CF4B1A605B
:1021C000CE4B1B681846FEF745F8CD48FEF7C2FC1B
:1021D000C7F88800D7F88830C3F18003DA0F1344BA
:1021E0005B10C7F88430C54B1868002301930323A4
:1021F0000093C34B2022D7F88410FEF7D7F9C148CB
:10220000FEF7A8FCC7F88800D7F88830C3F1800330
:10221000DA0F13445B10C7F88430B84B18680023FA
:10222000019307230093B74B3022D7F88410FEF7B1
:10223000BDF9B24B1B681846FEF72AF801F0AAFB5D
:10224000FEF73AFF0121042000F016FC042387F872
:1022500073304FF48063A7F87030032387F872302F
:1022600007F170031946A848FFF758FC4FF41653BE
:102270003B660023A7F86C300423A7F86A300023DC
:10228000A7F868300023A7F866300023A7F8643069
:1022900001214FF4804000F0EFFB07F16003194685
:1022A0009A4800F0ADFE012240F22551974800F017
:1022B00081FF2520FFF70AFD04212520FFF71EFDE1
:1022C0000121924800F056FF6FF07F40FFF740FD7C
:1022D000FFF784FA01F0ECFC8D4B1B78DBB2012B8D
:1022E00040F060818A4B00221A704FF40072002186
:1022F000884802F085F9884802F02EFA0346C7F8AC
:10230000AC30D7F8AC3003F00103002B40F0A182D1
:102310000023C7F8A8300023C7F8A430002387F8AB
:102320003F3042E0D7F8A4305A1CC7F8A4207A4ABC
:10233000D35C07F13F0211461846FFF745FD0346FF
:10234000002B09D097F83F301B01D9B2714AD7F85A
:10235000A83013440A461A70D7F8A4305A1CC7F89C
:10236000A4206D4AD35C07F13F0211461846FFF7DF
:102370002BFD0346002B0ED0664AD7F8A830134435
:102380001A7897F83F301343D9B2624AD7F8A83089
:1023900013440A461A70D7F8A8300133C7F8A8309A
:1023A000D7F8AC30013BC7F8AC30D7F8AC305A1E88
:1023B000C7F8AC20002BB5D1564B1B78022B00F090
:1023C000E580032B00F0AA80012B00D0E3E0514B05
:1023D0005B78C7F880300223C7F8A030474B1B68F2
:1023E0001846FDF737FF0023C7F89C300123C7F8D4
:1023F00098300023C7F8943070E0D7F8A0305A1C0A
:10240000C7F8A020434AD35CFB67D7F8A0305A1C1A
:10241000C7F8A0203F4AD35CC7F89030374B1C6800
:10242000F86F00F01BFA034619462046FEF7C2F982
:1024300007F120031E220021184602F0E1F8D7F828
:1024400090301D2B0DDDD7F8A030324A991807F1D6
:1024500020031D22184602F0ADF91D23C7F8903065
:102460000AE0D7F8A0302B4A9918D7F8902007F146
:102470002003184602F09EF90023BB6707F12003F2
:10248000184602F069F90246D7F890309A4203D212
:102490000023C7F8983027E0184B1868D7F8903019
:1024A000DBB207F120010022019200930B46D7F81E
:1024B0009C20B96FFEF77AF8D7F8A020D7F89030B3
:1024C0001344C7F8A030D7F89C20FB6F1344C7F81B
:1024D0009C30D7F894300133C7F89430D7F8942063
:1024E000D7F880309A4288DBD7F89830002B4FD04D
:1024F000024B1B681846FDF7CBFE49E0F0140020A4
:102500001C0000202000002000080140003801408D
:1025100078000020F012002008150020B74B9B78AF
:102520000B2B37D8B54B9B78002B33D0B34B1B7993
:10253000BB64BB6C0C2B05DDBB6C0C3BBB6401238B
:10254000FB650CE0BB6C002B04D10C23BB640023A7
:10255000FB6504E0A94B1B79BB640023FB65A74B1B
:102560005B797B64A54B9B793B640023FB64A34BA5
:10257000DB783B65A14B9B787B65A04B5B78BB65AB
:1025800007F140031846FEF7BDFF03E000BF02E07D
:1025900000BF00E000BF4FF400720021984802F035
:1025A0002FF897E6974B1B78DBB2022B7FF492AEA5
:1025B000944B00221A70FFF77FF8934B1B68184664
:1025C000FDF748FE904B1C68102000F047F90346C9
:1025D00019462046FEF7EEF88B4B1868002301934E
:1025E00012230093894B10220021FDF7DFFF884B57
:1025F00007F110040FCB07C4238007F1100318461E
:10260000FEF7A8FA78670023C7F88C307B6F802B21
:1026100003DD0023C7F88C3007E07B6FC3F1800334
:10262000DA0F13445B10C7F88C30774B186807F14A
:102630001002002301930D23009313462022D7F8A4
:102640008C10FDF7B3FF734B9B68734A82FB031238
:102650009210DB17D31ADBB23033DBB23B716D4B18
:102660009A686D4B83FB02139910D317C91A0B4656
:102670009B000B445B00D11ACBB23033DBB27B71D1
:102680003A23BB71634B5B68634A82FB031292106F
:10269000DB17D31ADBB23033DBB2FB715D4B5A6808
:1026A0005D4B83FB02139910D317C91A0B469B008D
:1026B0000B445B00D11ACBB23033DBB23B72202328
:1026C0007B72544BDB69012B04D15023BB724D2329
:1026D000FB7203E04123BB724D23FB7200233B736B
:1026E0003B1D1846FEF736FA78677B6F802B03DDBB
:1026F0000023C7F88C3007E07B6FC3F18003DA0F4B
:1027000013445B10C7F88C303F4B18683A1D002308
:1027100001930823009313464022D7F88C10FDF74D
:1027200045FF3C4B1B693C4A82FB03129210DB17AE
:10273000D31ADBB23033DBB23B71364B1A69364BFE
:1027400083FB02139910D317C91A0B469B000B4445
:102750005B00D11ACBB23033DBB27B712F23BB715C
:102760002C4B5B692C4A82FB03129210DB17D31AA5
:10277000DBB23033DBB2FB71264B5A69264B83FB4D
:1027800002139910D317C91A0B469B000B445B0028
:10279000D11ACBB23033DBB23B722F237B723223A0
:1027A000BB723023FB721B4B9B691B4A82FB0312DB
:1027B0009210DB17D31ADBB23033DBB23B73154B0D
:1027C0009A69154B83FB02139910D317C91A0B464C
:1027D0009B000B445B00D11ACBB23033DBB27B736E
:1027E0000023BB733B1D1846FEF7B4F978677B6F77
:1027F000802B13DD0023C7F88C3017E0F012002087
:102800000815002078000020F0140020304D00084A
:10281000444D0008C8100020676666667B6FC3F1F0
:102820008003DA0F13445B10C7F88C300A4B18682A
:102830003A1D002301930A23009313463022D7F850
:102840008C10FDF7B3FE044B1B681846FDF720FD06
:1028500040E500BF3EE500BFF014002080B485B025
:1028600000AF7860184BFB607B680A3B082B24D8CC
:1028700001A252F823F000BF9D280008A3280008F9
:10288000A3280008A9280008A9280008AF280008E4
:10289000AF280008B5280008B52800080B4BFB60DE
:1028A0000CE00B4BFB6009E00A4BFB6006E0064BBB
:1028B000FB6003E0084BFB6000E000BFFB681846CC
:1028C0001437BD4680BC70471C610008544D000899
:1028D0006450000820580008C465000880B487B020
:1028E00000AF786000237B6100233B610023FB6025
:1028F0000023BB604C4B5B6803F00C037B617B697E
:10290000042B07D0082B09D0002B33D17B68474A12
:102910001A6033E07B68454A1A602FE0424B5B68DF
:1029200003F470133B61404B5B6803F48033FB603E
:102930003B699B0C02333B61FB68002B06D13B6972
:102940003B4A02FB03F27B681A6017E0364B5B6878
:1029500003F40033002B06D03B69354A02FB03F237
:102960007B681A600AE03B69304A02FB03F27B682D
:102970001A6003E07B682D4A1A6000BF2A4B5B682F
:1029800003F0F0037B617B691B097B61294A7B694A
:1029900013441B78DBB2BB607B681A68BB68DA4003
:1029A0007B685A60204B5B6803F4E0637B617B6962
:1029B0001B0A7B611F4A7B6913441B78DBB2BB6037
:1029C0007B685A68BB68DA407B689A60164B5B6824
:1029D00003F460537B617B69DB0A7B61154A7B6989
:1029E00013441B78DBB2BB607B685A68BB68DA4073
:1029F0007B68DA600C4B5B6803F440437B617B6966
:102A00009B0B7B610C4A7B6913441B78DBB2BB6078
:102A10007B68DA68BB68B2FBF3F27B681A6100BFBF
:102A20001C37BD4680BC70470010024000127A007F
:102A300000093D005C0000206C00002080B483B0E1
:102A400000AF78600B46FB70FB78002B06D009497D
:102A5000084B5A697B6813434B6106E00549054BF7
:102A60005A697B68DB4313404B6100BF0C37BD469E
:102A700080BC70470010024080B483B000AF786023
:102A80000B46FB70FB78002B06D00949084B9A696E
:102A90007B6813438B6106E00549054B9A697B68A7
:102AA000DB4313408B6100BF0C37BD4680BC7047D1
:102AB0000010024080B483B000AF78600B46FB701A
:102AC000FB78002B06D00949084BDA697B68134371
:102AD000CB6106E00549054BDA697B68DB431340AF
:102AE000CB6100BF0C37BD4680BC70470010024070
:102AF00080B487B000AF0346FB710023FB60002366
:102B00007B610023FB74FB795B09DBB2FB60FB6834
:102B1000012B03D1124B1B687B6109E0FB68022B80
:102B200003D10F4B1B6A7B6102E00D4B5B6A7B613B
:102B3000FB7903F01F03FB607A69FB6822FA03F359
:102B400003F00103002B02D00123FB7401E00023FA
:102B5000FB74FB7C18461C37BD4680BC704700BF29
:102B60000010024080B400AF044A044B5B6A43F09B
:102B70008073536200BFBD4680BC704700100240A6
:102B800080B485B000AF0346FB710023FB60FB7986
:102B9000062B26D801A252F823F000BFB92B00085B
:102BA000BF2B0008C52B0008CB2B0008D12B000839
:102BB000D72B0008DD2B00080D4BFB6012E00D4BFE
:102BC000FB600FE00C4BFB600CE00C4BFB6009E082
:102BD0000B4BFB6006E00B4BFB6003E00A4BFB601A
:102BE00000E000BFFB6818461437BD4680BC704744
:102BF00000080140000C0140001001400014014099
:102C000000180140001C01400020014080B485B044
:102C100000AF0346FB711023FB81FB790F2B5BD8C0
:102C200001A252F823F000BF692C00086F2C0008A5
:102C3000752C00087B2C0008812C0008872C0008CC
:102C40008D2C0008932C0008992C0008A12C00085A
:102C5000A92C0008B12C0008B92C0008C12C0008D0
:102C6000C92C0008D12C00080123FB8135E0022388
:102C7000FB8132E00423FB812FE00823FB812CE061
:102C80001023FB8129E02023FB8126E04023FB81E8
:102C900023E08023FB8120E04FF48073FB811CE064
:102CA0004FF40073FB8118E04FF48063FB8114E064
:102CB0004FF40063FB8110E04FF48053FB810CE084
:102CC0004FF40053FB8108E04FF48043FB8104E0A4
:102CD0004FF40043FB8100E000BFFB891846143726
:102CE000BD4680BC704700BF80B485B000AF0346CE
:102CF000FB711023FB73FB79002B02D0012B03D057
:102D000005E01023FB7302E00423FB7300BFFB7B91
:102D100018461437BD4680BC704700BF80B485B0EC
:102D200000AF0346FB710023FB60FB79062B27D81D
:102D300001A252F823F000BF552D00085B2D0008BA
:102D4000612D0008672D00086D2D0008732D000807
:102D5000792D00080423FB6012E00823FB600FE0DC
:102D60001023FB600CE02023FB6009E04023FB60A4
:102D700006E08023FB6003E04FF48073FB6000BF3C
:102D8000FB6818461437BD4680BC704780B586B0D6
:102D900000AF0346FB710B46BB7113467B711F4BA3
:102DA0001B685A1C1D490A609B001D4A13447B6125
:102DB0007B69002B01D100232BE07B69FA795A70E3
:102DC0007B69BA791A707B697A799A70FB791846AF
:102DD000FFF7D6FE38617B791846FFF785FF03467B
:102DE000FB73BB791846FFF711FF0346BB81032332
:102DF000BB73FB791846FFF791FF03460121184684
:102E0000FFF73AFE07F10C0319463869FEF786FE14
:102E10007B6918461837BD4680BD00BF8000002082
:102E20000C17002090B585B000AF78600B46FB70A2
:102E30007B68FB60FB689B78012B24D0FB78012B1F
:102E400010D1FB685B781846FFF79AFE0446FB68D2
:102E50001B781846FFF7DAFE034619462046FEF7B0
:102E600019FF11E0FB685B781846FFF789FE0446FE
:102E7000FB681B781846FFF7C9FE03461946204633
:102E8000FEF716FF00E000BF1437BD4690BD00BF3F
:102E900090B585B000AF78607B68FB60FB689B787D
:102EA000012B2BD0FB68DB78002B13D1FB685B7800
:102EB0001846FFF765FE0446FB681B781846FFF7C7
:102EC000A5FE034619462046FEF7E4FEFB680122F4
:102ED000DA7014E0FB685B781846FFF751FE044691
:102EE000FB681B781846FFF791FE034619462046FB
:102EF000FEF7DEFEFB680022DA7000E000BF143748
:102F0000BD4690BD80B485B000AF78600023FB73F0
:102F10000023BB600C4B1A687B681340BB600A4BF4
:102F20005A697B681340002B05D0BB68002B02D088
:102F30000123FB7301E00023FB73FB7B184614376E
:102F4000BD4680BC704700BF0004014080B483B020
:102F500000AF7860034A7B68536100BF0C37BD4601
:102F600080BC70470004014080B483B000AF78603B
:102F70007B68DB6C9BB218460C37BD4680BC704743
:102F800080B487B000AF78600B467B800023FB7570
:102F900000233B610023FB607B881B0A9BB23B61E3
:102FA0007B685B687A88D2B21340FB607B681A68E2
:102FB0003B691340002B05D0FB68002B02D0012396
:102FC000FB7501E00023FB75FB7D18461C37BD46F1
:102FD00080BC704780B485B000AF78600B467B80C2
:102FE0000023FB737B881B0A9BB2FB73FB7BDA43DA
:102FF0007B681A6000BF1437BD4680BC704700BFB5
:1030000080B58CB000AF786039600023FB6200238C
:10301000BB6200237B6200233B620023FB617B6871
:10302000FB617B681B8A9BB2FB62FA6A4CF6FF73FA
:103030001340FB623B68DB881A46FB6A1343FB6262
:10304000FB6A9AB27B681A827B689B899BB2FB629F
:10305000FA6A4EF6F3131340FB623B689A883B68AA
:103060001B8913439AB23B685B8913439BB21A4690
:10307000FB6A1343FB62FB6A9AB27B689A817B68A6
:103080009B8A9BB2FB62FA6A4FF6FF431340FB62D6
:103090003B689B891A46FB6A1343FB62FB6A9AB240
:1030A0007B689A8207F108031846FFF717FCFB6953
:1030B0002E4A934202D17B69BB6201E03B69BB624D
:1030C0007B689B899BB21BB2002B0CDABA6A134651
:1030D0009B0013449A001A443B681B685B00B2FBD8
:1030E000F3F37B620BE0BA6A13469B0013449A0029
:1030F0001A443B681B689B00B2FBF3F37B627B6A5C
:103100001B4AA2FB03235B091B01FB62FB6A1B0931
:10311000642202FB03F37A6AD31A3B627B689B89C1
:103120009BB21BB2002B0CDA3B6ADB003233104A35
:10313000A2FB03235B0903F00703FA6A1343FB6254
:103140000BE03B6A1B013233094AA2FB03235B09F4
:1031500003F00F03FA6A1343FB62FB6A9AB27B68BF
:103160001A8100BF3037BD4680BD00BF0038014026
:103170001F85EB5180B483B000AF78600B46FB70C5
:10318000FB78002B08D07B689B899BB243F40053EB
:103190009AB27B689A8107E07B689B899BB223F493
:1031A00000539AB27B689A8100BF0C37BD4680BC41
:1031B000704700BF80B487B000AF78600B467B805B
:1031C00013467B7000233B610023FB600023BB6040
:1031D00000237B617B687B617B88DBB25B09DBB2B0
:1031E0003B617B8803F01F03FB600122FB6802FA4E
:1031F00003F3BB603B69012B03D17B690C337B611B
:1032000009E03B69022B03D17B6910337B6102E04B
:103210007B6914337B617B78002B06D07B697A69EC
:103220001168BA680A431A6006E07B697A69116816
:10323000BA68D2430A401A6000BF1C37BD4680BC42
:10324000704700BF80B483B000AF78607B689B8814
:103250009BB2C3F308039BB218460C37BD4680BC33
:10326000704700BF80B487B000AF78600B467B80AA
:103270000023FB6000237B610023BB600023FB7401
:103280007B88DBB25B09DBB2BB607B8803F01F038A
:103290007B6101227B6902FA03F37B61BB68012B2E
:1032A00007D17B689B899BB21A467B6913407B617F
:1032B00011E0BB68022B07D17B681B8A9BB21A46C0
:1032C0007B6913407B6106E07B689B8A9BB21A4650
:1032D0007B6913407B617B881B0A9BB2FB600122E8
:1032E000FB6802FA03F3FB607B681B889BB21A46FB
:1032F000FB681340FB607B69002B05D0FB68002B4B
:1033000002D00123FB7401E00023FB74FB7C184610
:103310001C37BD4680BC704780B483B000AF786076
:103320007B681A684FF6FE7313407A6813607B68F7
:1033300000221A607B6800225A607B6800229A6033
:103340007B680022DA607B68434A934206D1434A95
:10335000424B5B6843F00F03536077E07B68404A61
:10336000934206D13D4A3D4B5B6843F0F003536006
:103370006CE07B683B4A934206D1384A374B5B6826
:1033800043F47063536061E07B68374A934206D12F
:10339000324A324B5B6843F47043536056E07B68BB
:1033A000324A934206D12D4A2C4B5B6843F470237A
:1033B00053604BE07B682E4A934206D1274A274B45
:1033C0005B6843F47003536040E07B68294A934292
:1033D00006D1224A214B5B6843F07063536035E0AD
:1033E0007B68254A934206D1244A244B5B6843F00C
:1033F0000F0353602AE07B68214A934206D11F4A9B
:103400001E4B5B6843F0F00353601FE07B681D4A6E
:10341000934206D1194A194B5B6843F470635360B9
:1034200014E07B68184A934206D1144A134B5B6838
:1034300043F47043536009E07B68144A934205D11A
:103440000E4A0E4B5B6843F47023536000BF0C3789
:10345000BD4680BC704700BF08000240000002402B
:103460001C0002403000024044000240580002406C
:103470006C00024080000240080402400004024048
:103480001C0402403004024044040240580402403C
:1034900080B485B000AF786039600023FB607B6842
:1034A0001B68FB60FB6823F4FF4323F07003FB60A1
:1034B0003B689A683B681B6A1A433B681B691A435E
:1034C0003B685B691A433B689B691A433B68DB694D
:1034D0001A433B685B6A1A433B689B6A1343FA686A
:1034E0001343FB607B68FA681A603B68DA687B68A4
:1034F0005A603B681A687B689A603B685A687B68C8
:10350000DA6000BF1437BD4680BC704780B483B01A
:1035100000AF78600B46FB70FB78002B06D07B6811
:103520001B6843F001027B681A6006E07B681A683A
:103530004FF6FE7313407A68136000BF0C37BD4628
:1035400080BC704780B485B000AFF860B9601346A6
:10355000FB71FB79002B06D0FB681A68BB681A4325
:10356000FB681A6006E0FB681A68BB68DB431A4018
:10357000FB681A6000BF1437BD4680BC704700BFAF
:1035800080B483B000AF78607B6803F08053002B79
:1035900003D0064A7B68536002E0054A7B685360AB
:1035A00000BF0C37BD4680BC704700BF000402401E
:1035B0000000024080B58AB000AF78603960002317
:1035C000FB8400237B840423BB84574BFB617B6813
:1035D0009B88FB84FB8C23F03F03FB8407F10803EB
:1035E0001846FFF77BF93B69FB61FB694F4AA2FB79
:1035F00003239B0C7B84FA8C7B8C1343FB847B68BA
:10360000FA8C9A807B681B889BB223F001039AB2E4
:103610007B681A800023FB843B681B68444A934202
:1036200015D83B681B685B00FA69B2FBF3F3BB84F7
:10363000BB8C032B01D80423BB84FA8CBB8C1343B3
:10364000FB847B8C01339AB27B681A8440E03B6830
:10365000DB884BF6FF72934209D13B681A68134628
:103660005B001344FA69B2FBF3F3BB840EE03B68E2
:103670001A6813469B0013449A001344FA69B2FB7C
:10368000F3F3BB84BB8C43F48043BB84BB8CC3F398
:103690000B03002B03D1BB8C43F00103BB84BA8C1A
:1036A000FB8C13439BB26FEA43436FEA5343FB84A3
:1036B0007B8C4FF4967202FB03F31E4A82FB0312CB
:1036C0009211DB17D31A9BB201339AB27B681A842A
:1036D0007B68FA8C9A837B681B889BB243F001035A
:1036E0009AB27B681A807B681B88FB84FB8C23F46E
:1036F000816323F00203FB843B689A883B685B8903
:1037000013439AB2FB8C1343FB847B68FA8C1A80B8
:103710003B689A893B681B8913439AB27B681A817C
:1037200000BF2837BD4680BD00127A0083DE1B43F0
:10373000A0860100D34D621080B483B000AF7860E2
:103740000B46FB70FB78002B08D07B681B889BB274
:1037500043F001039AB27B681A8007E07B681B88FC
:103760009BB223F001039AB27B681A8000BF0C372A
:10377000BD4680BC704700BF80B483B000AF7860A6
:103780000B46FB70FB78002B08D07B681B889BB234
:1037900043F480739AB27B681A8007E07B681B88C9
:1037A0009BB223F480739AB27B681A8000BF0C37F7
:1037B000BD4680BC704700BF80B483B000AF786066
:1037C0000B46FB70FB78002B08D07B681B889BB2F4
:1037D00043F400739AB27B681A8007E07B681B8809
:1037E0009BB223F400739AB27B681A8000BF0C3737
:1037F000BD4680BC704700BF80B483B000AF786026
:103800000B46FB70FB78002B08D07B681B889BB2B3
:1038100043F480639AB27B681A8007E07B681B8858
:103820009BB223F480639AB27B681A8000BF0C3786
:10383000BD4680BC704700BF80B483B000AF7860E5
:103840000B46FB70FB789AB27B681A8200BF0C377C
:10385000BD4680BC704700BF80B483B000AF7860C5
:103860007B681B8A9BB2DBB218460C37BD4680BC16
:10387000704700BF80B483B000AF78600B46FB7028
:103880001346BB70BB78002B04D0FB7843F00103D8
:10389000FB7003E0FB7823F00103FB70FB789AB226
:1038A0007B681A8200BF0C37BD4680BC704700BFE2
:1038B00080B487B000AF7860396000233B6100239B
:1038C000FB600023BB600023FB757B689B8A9BB277
:1038D000FB607B681B8B9BB2BB60BB681B04BB603F
:1038E000FA68BB68134323F07F433B613A693B6846
:1038F0001A403B689A4202D10123FB7501E0002384
:10390000FB75FB7D18461C37BD4680BC704700BF69
:1039100080B483B000AF0346FB71084997F90730C4
:103920005B09FA7902F01F02012000FA02F241F865
:10393000232000BF0C37BD4680BC704700E100E08B
:1039400080B483B000AF03463960FB7197F907304C
:10395000002B0BDA0D49FB7903F00F03043B3A68A7
:10396000D2B21201D2B20B441A7609E0084997F993
:1039700007303A68D2B21201D2B20B4483F8002366
:1039800000BF0C37BD4680BC704700BF00ED00E0B3
:1039900000E100E080B584B000AF01210220FFF714
:1039A00089F801210420FFF785F801214FF4006018
:1039B000FFF762F801210C20FFF75EF83F233B8000
:1039C0001023FB700323BB703B4619465E48FEF78D
:1039D000A5F844F201033B801823FB703B461946CF
:1039E0005A48FEF79BF85A4B4F221A80584B1B88B7
:1039F000013B1A46322303FB02F3564AA2FB032380
:103A00005B09FB810123BB800023FB80504B1B889B
:103A10003B8100237B8100233B733B1D19464E48AD
:103A2000FDF7BAF84D4B4BF67F321A800123BB806D
:103A30004A4B1B883B8100237B8100233B733B1D4A
:103A400019464748FDF7A8F8444B4CF24F321A800C
:103A50000223BB80414B1B883B8100237B810023D9
:103A60003B731E23BB803B1D19463E48FDF794F86F
:103A70003D4B60221A803C4B01225A803A4B002277
:103A80009A80394AFB89D380374B02221A81364B00
:103A900000229A8134493048FDF782F92F4B1B8868
:103AA000013B1A46322303FB02F32A4AA2FB0323FB
:103AB0005B09FB812C4B04229A802B4B00225A80FD
:103AC000294B08225A81284AFB89D3802649244859
:103AD000FDF7DEF801224FF400711F48FDF750FAA0
:103AE00001211D48FDF702FA01211D48FDF7FEF9ED
:103AF00001211B48FDF792FA012201211848FDF728
:103B00001BFA02211920FFF71BFF1920FFF700FF06
:103B100001211448FDF782FA012201211148FDF725
:103B20000BFA0D211E20FFF70BFF1E20FFF7F0FE02
:103B300001210B48FDF7BAF901210A48FDF7B6F952
:103B400000BF1037BD4680BD00080140000C014099
:103B5000840000201F85EB51000400405C1700200A
:103B6000002C0140000800406017002080B58EB096
:103B700000AF78602048FFF7CFFB01210120FEF75E
:103B80005DFF1E4BFB607B683B6110237B614FF444
:103B90000073BB610023FB6180233B6200237B62D7
:103BA0000023BB620023FB624FF400533B630023FE
:103BB0007B6307F10C0319460F48FFF769FC4FF4CC
:103BC0000010FFF7DDFC012202210B48FFF7BAFCD1
:103BD00001210948FFF79AFC01211020FFF7B0FEF0
:103BE0001020FFF795FE01210548FDF75FF900BFA2
:103BF0003837BD4680BD00BF6C0002400C08014054
:103C00000004004080B500AF4FF40010FFF7B8FC8F
:103C100000210448FDF74AF900210348FFF776FC2C
:103C200000BF80BD000400406C00024080B500AFC2
:103C300001210648FDF7F2F9FCF714FCFCF7A6FC9D
:103C400003461846FFF792FF00BF80BD002C0140DD
:103C500080B483B000AF0346FB80044AFB88136046
:103C600000BF0C37BD4680BC704700BF003000402D
:103C700080B483B000AF0346FB71044AFB79536004
:103C800000BF0C37BD4680BC704700BF003000400D
:103C900080B483B000AF0346FB80044AFB88936086
:103CA00000BF0C37BD4680BC704700BF00300040ED
:103CB00080B400AF034B4AF6AA221A6000BFBD468B
:103CC00080BC70470030004080B400AF034B4CF61E
:103CD000CC421A6000BFBD4680BC70470030004037
:103CE00081F0004102E000BF83F0004330B54FEAAD
:103CF00041044FEA430594EA050F08BF90EA020F1A
:103D00001FBF54EA000C55EA020C7FEA645C7FEAAC
:103D1000655C00F0E2804FEA5454D4EB5555B8BFCF
:103D20006D420CDD2C4480EA020281EA030382EA40
:103D3000000083EA010180EA020281EA0303362DD2
:103D400088BF30BD11F0004F4FEA01314FF4801CA5
:103D50004CEA113102D0404261EB410113F0004FB7
:103D60004FEA03334CEA133302D0524263EB43036E
:103D700094EA050F00F0A780A4F10104D5F1200E0C
:103D80000DDB02FA0EFC22FA05F2801841F1000167
:103D900003FA0EF2801843FA05F359410EE0A5F13B
:103DA00020050EF1200E012A03FA0EFC28BF4CF06C
:103DB000020C43FA05F3C01851EBE37101F0004522
:103DC00007D54FF0000EDCF1000C7EEB00006EEB2F
:103DD0000101B1F5801F1BD3B1F5001F0CD34908B9
:103DE0005FEA30004FEA3C0C04F101044FEA445210
:103DF00012F5800F80F09A80BCF1004F08BF5FEA97
:103E0000500C50F1000041EB045141EA050130BD76
:103E10005FEA4C0C404141EB010111F4801FA4F119
:103E20000104E9D191F0000F04BF01460020B1FA6E
:103E300081F308BF2033A3F10B03B3F120020CDAA6
:103E40000C3208DD02F1140CC2F10C0201FA0CF084
:103E500021FA02F10CE002F11402D8BFC2F1200CE9
:103E600001FA02F120FA0CFCDCBF41EA0C0190409F
:103E7000E41AA2BF01EB0451294330BD6FEA0404E8
:103E80001F3C1CDA0C340EDC04F11404C4F12002D3
:103E900020FA04F001FA02F340EA030021FA04F3E5
:103EA00045EA030130BDC4F10C04C4F1200220FA3C
:103EB00002F001FA04F340EA0300294630BD21FA7A
:103EC00004F0294630BD94F0000F83F4801306BF40
:103ED00081F480110134013D4EE77FEA645C18BF34
:103EE0007FEA655C29D094EA050F08BF90EA020FCB
:103EF00005D054EA000C04BF1946104630BD91EAC3
:103F0000030F1EBF0021002030BD5FEA545C05D1C5
:103F10004000494128BF41F0004130BD14F5800404
:103F20003CBF01F5801130BD01F0004545F0FE4178
:103F300041F470014FF0000030BD7FEA645C1ABFAD
:103F4000194610467FEA655C1CBF0B46024650EAE4
:103F5000013406BF52EA033591EA030F41F4002110
:103F600030BD00BF90F0000F04BF0021704730B596
:103F70004FF4806404F132044FF000054FF000016B
:103F800050E700BF90F0000F04BF0021704730B52C
:103F90004FF4806404F1320410F0004548BF404201
:103FA0004FF000013EE700BF42004FEAE2014FEA56
:103FB00031014FEA02701FBF12F07F4393F07F4F31
:103FC00081F06051704792F0000F14BF93F07F4F63
:103FD000704730B54FF4607401F0004521F00041A6
:103FE00020E700BF50EA010208BF704730B54FF02C
:103FF00000050AE050EA010208BF704730B511F031
:10400000004502D5404261EB41014FF4806404F168
:1040100032045FEA915C3FF4DCAE4FF003025FEAEA
:10402000DC0C18BF03325FEADC0C18BF033202EB72
:10403000DC02C2F1200300FA03FC20FA02F001FACC
:1040400003FE40EA0E0021FA02F11444C1E600BF6B
:1040500070B54FF0FF0C4CF4E06C1CEA11541DBF1E
:104060001CEA135594EA0C0F95EA0C0F00F0DEF8E9
:104070002C4481EA030621EA4C5123EA4C5350EACE
:10408000013518BF52EA033541F4801143F480131F
:1040900038D0A0FB02CE4FF00005E1FB02E506F0B0
:1040A0000042E0FB03E54FF00006E1FB03569CF005
:1040B000000F18BF4EF0010EA4F1FF04B6F5007F0B
:1040C00064F5407404D25FEA4E0E6D4146EB06067D
:1040D00042EAC62141EA55514FEAC52040EA5E5006
:1040E0004FEACE2EB4F1FD0C88BFBCF5E06F1ED8B0
:1040F000BEF1004F08BF5FEA500E50F1000041EBE7
:10410000045170BD06F0004646EA010140EA020093
:1041100081EA0301B4EB5C04C2BFD4EB0C0541EAB5
:10412000045170BD41F480114FF0000E013C00F3CA
:10413000AB8014F1360FDEBF002001F0004170BDEE
:10414000C4F10004203C35DA0C341BDC04F1140407
:10415000C4F1200500FA05F320FA04F001FA05F293
:1041600040EA020001F0004221F0004110EBD37060
:1041700021FA04F642EB06015EEA430E08BF20EA8C
:10418000D37070BDC4F10C04C4F1200500FA04F32F
:1041900020FA05F001FA04F240EA020001F00041C1
:1041A00010EBD37041F100015EEA430E08BF20EA34
:1041B000D37070BDC4F1200500FA05F24EEA020E7C
:1041C00020FA04F301FA05F243EA020321FA04F0AB
:1041D00001F0004121FA04F220EA020000EBD37062
:1041E0005EEA430E08BF20EAD37070BD94F0000F62
:1041F0000FD101F00046400041EB010111F4801F96
:1042000008BF013CF7D041EA060195F0000F18BF46
:10421000704703F00046520043EB030313F4801F82
:1042200008BF013DF7D043EA0603704794EA0C0F3C
:104230000CEA135518BF95EA0C0F0CD050EA410652
:1042400018BF52EA4306D1D181EA030101F00041CF
:104250004FF0000070BD50EA410606BF10461946F7
:1042600052EA430619D094EA0C0F02D150EA013603
:1042700013D195EA0C0F05D152EA03361CBF104644
:1042800019460AD181EA030101F0004141F0FE41E3
:1042900041F470014FF0000070BD41F0FE4141F467
:1042A000780170BD70B54FF0FF0C4CF4E06C1CEA67
:1042B00011541DBF1CEA135594EA0C0F95EA0C0F1C
:1042C00000F0A7F8A4EB050481EA030E52EA0335D7
:1042D0004FEA013100F088804FEA03334FF08055F8
:1042E00045EA131343EA12634FEA022245EA111525
:1042F00045EA10654FEA00260EF000419D4208BFD6
:10430000964244F1FD0404F5407402D25B084FEA82
:104310003202B61A65EB03055B084FEA32024FF42E
:1043200080104FF4002CB6EB020E75EB030E22BF8B
:10433000B61A754640EA0C005B084FEA3202B6EB4B
:10434000020E75EB030E22BFB61A754640EA5C00FA
:104350005B084FEA3202B6EB020E75EB030E22BF8A
:10436000B61A754640EA9C005B084FEA3202B6EB8B
:10437000020E75EB030E22BFB61A754640EADC004A
:1043800055EA060E18D04FEA051545EA16754FEAAC
:1043900006164FEAC30343EA52734FEAC2025FEACA
:1043A0001C1CC0D111F4801F0BD141EA00014FF059
:1043B00000004FF0004CB6E711F4801F04BF01432A
:1043C0000020B4F1FD0C88BFBCF5E06F3FF6AFAE46
:1043D000B5EB030C04BFB6EB020C5FEA500C50F1D6
:1043E000000041EB045170BD0EF0004E4EEA113159
:1043F00014EB5C04C2BFD4EB0C0541EA045170BD60
:1044000041F480114FF0000E013C90E645EA060EA3
:104410008DE60CEA135594EA0C0F08BF95EA0C0FD1
:104420003FF43BAF94EA0C0F0AD150EA01347FF419
:1044300034AF95EA0C0F7FF425AF104619462CE7F0
:1044400095EA0C0F06D152EA03353FF4FDAE104653
:10445000194622E750EA410618BF52EA43067FF4A4
:10446000C5AE50EA41047FF40DAF52EA43057FF434
:10447000EBAE12E74FEA4102B2F1E04324BFB3F5DD
:10448000001CDCF1FE5C0DD901F0004C4FEAC002CB
:104490004CEA5070B2F1004F40EB830008BF20F0AF
:1044A0000100704711F0804F21D113F13872BCBF69
:1044B00001F00040704741F480114FEA5252C2F1BE
:1044C0001802C2F1200C10FA0CF320FA02F018BF07
:1044D00040F001004FEAC1234FEAD32303FA0CFC5A
:1044E00040EA0C0023FA02F34FEA4303CCE77FEAE9
:1044F000625307D150EA01331EBF4FF0FE4040F433
:104500004000704701F0004040F0FE4040F40000E1
:10451000704700BF844641EA000313F0030349D10A
:10452000403A23D30B6803604B6843608B68836019
:10453000CB68C3600B6903614B6943618B6983611D
:10454000CB69C3610B6A03624B6A43628B6A836205
:10455000CB6AC3620B6B03634B6B43638B6B8363ED
:10456000CB6BC36340304031403ADBD230320BD3A7
:104570000B6803604B6843608B688360CB68C360E3
:1045800010301031103AF3D20C3205D351F8043BFD
:1045900040F8043B043AF9D2043208D0D2071CBFD9
:1045A00011F8013B00F8013B01D30B880380604602
:1045B000704700BF082A13D38B07B1D010F0030354
:1045C000AED0C3F10403D21ADB071CBF11F8013BC4
:1045D00000F8013BA4D331F8023B20F8023B9FE7EF
:1045E000043AD9D3013A11F8013B00F8013BF9D262
:1045F0000B7803704B7843708B78837060467047FC
:1046000070B4840746D0541E002A41D0CDB2034670
:1046100002E0621EE4B3144603F8015B9A07F8D186
:10462000032C2ED9CDB245EA05250F2C45EA0545C8
:1046300019D9264603F11002103E0F2E42F8105CE5
:1046400042F80C5C42F8085C42F8045C02F110028B
:10465000F2D8A4F1100222F00F0204F00F0410327D
:10466000032C13440DD91E462246043A032A46F869
:10467000045BFAD8221F22F003020432134404F030
:1046800003042CB1C9B21C4403F8011BA342FBD1A3
:1046900070BC704714460346C2E700BF80EA0102BF
:1046A000844612F0030F4FD111F0030F32D14DF8B1
:1046B000044D11F0040F51F8043B0BD0A3F101326B
:1046C0009A4312F0803F04BF4CF8043B51F8043B7E
:1046D00016D100BF51F8044BA3F101329A4312F0F6
:1046E000803FA4F101320BD14CF8043BA24312F0FD
:1046F000803F04BF51F8043B4CF8044BEAD02346FA
:104700000CF8013B13F0FF0F4FEA3323F8D15DF8AB
:10471000044B704711F0010F06D011F8012B0CF873
:10472000012B002A08BF704711F0020FBFD031F8EB
:10473000022B12F0FF0F16BF2CF8022B8CF8002072
:1047400012F47F4FB3D1704711F8012B0CF8012BF5
:10475000002AF9D1704700BF20F0030110F00300D8
:10476000C0F1000051F8043B00F1040C4FEACC0CFE
:104770006FF000021CBF22FA0CF213434FF0010C41
:104780004CEA0C2C4CEA0C4CA3EB0C0222EA030280
:1047900012EACC1204BF51F8043B0430F4D0C2F149
:1047A000000102EA0102B2FA82F2C2F11F0200EB3A
:1047B000D200704740EA01039B0770B42BD1032A53
:1047C00029D90C460346214654F8046BA6F101355D
:1047D00025EA060515F0803F06D1043A032A43F87E
:1047E000046B2146EFD8A2B10C78013A1C7001315C
:1047F00001333CB16AB111F8014B013A03F8014BA6
:10480000002CF7D12AB11A44002103F8011B9A4267
:10481000FBD170BC70470346E5E700BF20460A0F96
:10482000206000020507070A0802040405060204C6
:104830000204060406060706050506060202060629
:1048400006060D07060806060607060206080709FB
:104850000707060807070607090B090807030403EB
:104860000707030606050605040606020306020AF4
:1048700006060606040504060709060706040204E0
:104880000603FEFE1A1A1E1E001E1E000000000077
:10489000B0F0B8B6F0B8B61A06021A0602023C7EAC
:1048A00066FFC6CC88041C183E181E0E3C42423CD3
:1048B00000E0984640800000001806000E10100E20
:1048C00080DC7EF6DE0C80000E1E18181E0E1E0800
:1048D0001E1E0000E0F81C020E3E7080020CF8E084
:1048E00080703E0E0C681E680C00000000006060C6
:1048F000FCFC6060000006060000000098788080E4
:104900008080020202020000181800F0FE0E1C1E39
:104910000200F8FC0606FCF8060E18180E06301801
:10492000FEFE00001E1E1C1E86C6FE7C1C1E1E1ADD
:1049300018180C0E6666FE9C0C1C18181E0EC0E0A3
:104940003018FCFE00060606061E1E063E3E3636E3
:10495000F6E60E1E18181E0EFCFE66EECC0E1E1895
:104960001E0E0606E6FE3E181E0600009CFE66664B
:10497000FE9C0E1E18181E0E7CFEC6C6FEFC0C1CED
:1049800018181E0E0C0C060630309878E0E0B0B80F
:10499000180C00000206060CB0B0B0B0B0B00202B5
:1049A000020202020C1838B0E0E00C060602000019
:1049B0001C1E86E67E3C00001A1A0000E0F038CC8F
:1049C000E6763666F6760CF8F00E3E706EDED8D8D7
:1049D000CEDED84C2E1200E0FC1EFCE0001E1E06AF
:1049E00006061E1EFEFE6666FE9C1E1E18181E0E85
:1049F000F8FC0E06060E1C18060E1C18181C0E06D7
:104A0000FEFE060EFCF81E1E181C0E06FEFE666656
:104A100066661E1E18181818FEFE666666061E1EBE
:104A200000000000F8FC0EC6CEDCD8060E1C1818DC
:104A30001E1EFEFE6060FEFE1E1E00001E1EFEFE0E
:104A40001E1E00000000FEFE0E1E18181E0EFEFEAA
:104A5000C060F8DC0E061E1E000000061E18FEFEDA
:104A600000000000001E1E1818181818FEFEF8E0BE
:104A700080E078FEFE1F1F00030F03001F1FFEFED5
:104A80007CE080FEFE1E1E00020E1E1EFCFE0606C0
:104A900006FEFC0E1E1818181E0EFEFEC6C6FE7C74
:104AA0001E1E00000000F8FC0E06060EFCF8060EA6
:104AB0001C181A1C0E1AFEFE66E6E63E3C1E1E0080
:104AC00002061E1C3C7E6666C6DE9C0E1E1818186A
:104AD0001E0E0606FEFE060600001E1E0000FEFE5E
:104AE0000000FEFE000E1E18181E0E000E7EF8C0FE
:104AF00000C0F87E0E0000061E1C1E0600001EFEF2
:104B0000F000FC06FC00F0FE1E00061E1C0600065F
:104B10001C1E060002061CF8E0F81C060210180E07
:104B20000600060E18100E3C70E0E0703C0E00000F
:104B3000001E1E0000000686E6F63E1E0E1E1E1A11
:104B400018181818FEFE06FEFEC01EFEF80000062D
:104B50001E1E06FEFEC0FEFE40783E063E78400069
:104B60000000000000000000000000000040404085
:104B7000404040400206040000006070B0B0F0E029
:104B80000E1E1A0A1E1EFEFE3030F0E01E1E181801
:104B90001E0EE0F03070600E1E181C0CE0F030307D
:104BA000FEFE0E1E18181E1EE0F0B0F0E00E1E18DD
:104BB0001C0C30FCFE36001E1E00E0F03020F0F031
:104BC0004EDE9898FE7EFEFE6030F0E01E1E000075
:104BD0001E1EF6F61E1E00F6F6C0FE7EFEFEC0E0AD
:104BE000B0181E1E00020E18FEFE1E1EF0F0203031
:104BF000F0E02030F0E01E1E00001E1E00001E1E11
:104C0000F0F02030F0E01E1E00001E1EE0F03030FC
:104C1000F0E00E1E18181E0EF0F03030F0E0FEFE30
:104C200018181E0EE0F03030F0F00E1E1818FEFEC0
:104C3000F0F020301E1E000060F0B030600C181A3A
:104C40001E0C30FCFE30000E1E18F0F00000F0F0DC
:104C50000E1E18081E1E70F0C000C0F07000061E68
:104C60001C1E0600F0F000F070F000F0F0001E1CBA
:104C70001E001E1C1E001070E0E07010101C0E0EB6
:104C80001C1030F0C000C0F030C0C2FE7C1E02001C
:104C90003030B0F07030181C1E1A181880FC7E06D8
:104CA000027EFCC0FEFEFEFE067EFC80C0FC7E0294
:104CB000E06060C0C0E0000000000000FC04FC1EDA
:104CC000101E00004A414E5541525900464542527D
:104CD00055415259000000004D4152434800000028
:104CE000415052494C0000004D4159004A554E4533
:104CF000000000004A554C5900000000415547553E
:104D00005354000053455054454D42455200000055
:104D10004F43544F424552004E4F56454D42455227
:104D200000000000444543454D424552000000004C
:104D300042414E474142414E444855204252494427
:104D40004745000057454947482053544154494F6F
:104D50004E0000000DAE0A0A2060000103050507A1
:104D60000501020203040202010204020404050414
:104D700004040404010104040404070504050504F3
:104D800004050501030404050505040505040505DE
:104D900005070505040202010305010404030404D8
:104DA00002040401010301050404040403030204D2
:104DB00003050403030301030402BE000E000E00FA
:104DC0000000F82EF82E2800000000004C92FF9200
:104DD0006400004000000C12CC306C9260000000B7
:104DE0000000000060AC926CA000000000000E000B
:104DF000FC02408002FC8040140E14000000107C75
:104E00001010000000008080404020200000800042
:104E1000E01E00007C82827C0000000004FE000096
:104E2000C6A2928E00000000C69292EE0000000022
:104E3000302824FE2000000000004C8A8A72000006
:104E400000007C9292620000000002E21A0600005C
:104E500000006C92926C000000008C92927C00002A
:104E600000008800884010282844000000002828FE
:104E7000282800000000442828100000000004A298
:104E8000120C00000000F804728AFA847800408056
:104E900080808040FC222222FC0000000000FE9264
:104EA00092EE000000007C8282824400000000003C
:104EB000FE8282827C0000000000FE92929200003E
:104EC0000000FE121212000000007C828292F400A8
:104ED00000000000FE101010FE0000000000FE00A8
:104EE00040807E000000FE18648200000000FE800A
:104EF000808000000000FE3C403CFE0000000000FE
:104F0000FE0E38E0FE00000000007C8282827C0001
:104F100000000000FE12120C000000007C82A24281
:104F2000BC0000000000FE1232528C0000000000A5
:104F30004C929264000000000202FE020200000097
:104F400000007E8080807E00000000000E78807867
:104F50000E00000000007E807C027C807E0000004D
:104F600000000000826C106C820000000000020C47
:104F7000F00C020000000000C2B28A8600000000AF
:104F8000FE02C0800EF00000FEC01C021C000000EB
:104F9000000000000040404040400300E8A8A8F0A6
:104FA00000000000FE508870000000007088D000F3
:104FB0000000708850FE0000000070A8A8B000003B
:104FC0000000FE0A0000708850F880808040FE10CB
:104FD00008F000000000FA00FAC0FE30C80000002F
:104FE000FE00F808F808F80000000000F81008F0CB
:104FF000000000007088887000000000F850887081
:10500000C0000000708850F8000000C0F8100800D0
:10501000000090A868000000FE880000788040F83A
:1050200000000000788078000000788078807800A8
:1050300000000000887050880000000018E0188010
:105040004000C8A89800000020DC02004080FEC09C
:1050500002DC208040001008100800000000FCFC6A
:1050600000000000122A0A0C206000010305050759
:1050700005010202030502020103040304040504FE
:1050800004040404010204040404080505060505DB
:1050900004060501040504070606050606050506BF
:1050A00005070605050203020305020404040404BF
:1050B00002040401010401070404040403040204BB
:1050C000050705050402010305037E100E000E000E
:1050D0000000F84EF84E4810001000008C12FF122D
:1050E000E400103010000C128C70CC22C0000010B4
:1050F00000001000E02C32CCE000101000100E0078
:10510000FC02304002FC4030140E1400000020204D
:10511000F820200000000000000040304040000067
:105120000010C0300E100000FC0202FC0010100045
:105130000804FE0000108442221C1010101084127B
:1051400012EC00101000605844FE400000001000F7
:10515000981612E200101000FC2212E40010100059
:1051600002C23A0600100000EC1212EC001010000F
:105170009C2212FC00101000081000084030205043
:10518000508800000000505050500000000088502F
:105190005020000000000462120C00100000F00813
:1051A000F40A0AF20CF81020409090905020FC4233
:1051B0004242FC1000000010FE121212EC101010FF
:1051C0001000FC02020202CC001010101000FE02BF
:1051D0000202FC1010101000FE1212121210101019
:1051E0001010FE121202100000007884022222EC3D
:1051F000000010101000FE101010FE100000001033
:10520000FE10C00000FE00101000FE1038C4021096
:1052100000000010FE00000010101010FE0CF00046
:10522000F00CFE10000010000010FE04186080FE5C
:105230001000000000107884020284780000101032
:105240000000FE2222221C1000000000FC0202428C
:10525000827C001010100010FE1232528C001000E0
:1052600000000010CC121212E40010101000020214
:10527000FE02020000100000FE80000080FE001010
:10528000101010001EE000E01E0000100000FE00E4
:10529000FC02FC00FE0010000000100002CC3030C8
:1052A000CC02100000000010020CF00C02000010F4
:1052B00000008242320A061010101010FE027040E8
:1052C00006788000001002FE40701C021C000000E6
:1052D0000000000000202020202002040000C82838
:1052E00028F000101010FE1010E010101000F00850
:1052F000089000101000E01010FE00101010F028B0
:1053000028B000101000FE0A1000F00808F8405005
:105310005030FE1010E010000010FA10FA70FE205D
:10532000508810000010FE10F81008F01008F0105F
:10533000000010000010F81008F010000010F00835
:1053400008F000101000F888887070000000708865
:1053500088F800000070F8100810000090284890AD
:1053600000101000FE080010F80000F800101000F7
:1053700018E000E0180000100000F800F008F0004D
:10538000F800100000001000089060900810000065
:10539000001008708070080040300000884828180D
:1053A00010101010DC023040FE7002DC2040300093
:1053B00020103020100000000000FC04FC10101031
:1053C0001A3F0A0D206000010307050A08010303C4
:1053D000050701030104060306060606060606067F
:1053E0000101060706050C0907070707060807015C
:1053F000050806090708070807070707090D070733
:105400000702040205070205050505050305050158
:10541000020501090505050503050305050905053F
:10542000050301030707FF1007000700000048C835
:105430007C4BC87C4B001800001800009E11FF2117
:10544000E208103810080E11118E6018C62120C015
:1054500000001008000008101008C02E31518E0006
:10546000C00008101010080810100700F8060118F6
:1054700060800106F8806018020A070A0200000036
:105480000000202020FC2020200000000800000058
:105490000070404040000000001000E01C031800B5
:1054A0000000FE01010101FE0810101010080402A6
:1054B000FF00001802018141211E10181010101069
:1054C0000201111111EE08101010100880E09886EA
:1054D000FF800000000018003817111111E10810BA
:1054E00010101008FE21111111E208101010100800
:1054F000018161190701001800000000EE1111116F
:1055000011EE0810101010081E21212111FE0810A4
:1055100010100800081008702050508888040000FF
:10552000000000084848484848484800000000007B
:10553000000004888850502008000000000006C1C8
:1055400021110E0010000000F00CE212090909D12F
:10555000390284781820489090908898905048207C
:1055600000C0704E414E70C00018000000000000E6
:105570000018FF1111111111EE1810101010100861
:10558000FC02010101028400081010100800FF0154
:1055900001010102FC18101010100800FF11111178
:1055A00011111118101010101010FF11111111010C
:1055B000180000000000FC020101212122E4000883
:1055C000101010100800FF1010101010FF1800002D
:1055D00000000018FF1880000000FF0810101008DD
:1055E000FF4020304884020118000000000008102D
:1055F000FF0000000000181010101010FF0618E047
:1056000000E01806FF180000001800000018FF0254
:105610000C30C000FF18000000000818FC02010157
:10562000010102FC0008101010100800FF212121C8
:1056300021211E18000000000000FC0201018181F0
:1056400002FC0008101010100810FF21212161A198
:105650001E180000000008108E1111112121C6082B
:10566000101010101008010101FF010101000000DD
:1056700018000000FF0000000000FF0008101010DC
:105680000800030C30C000C0300C030000000018FC
:1056900000000000031CE000E01E011EE000E01C12
:1056A0000300000018000000000018000000018640
:1056B0004830CC020110080000000810010618E074
:1056C000180601000000180000000001C1310D03A0
:1056D0000110181010101010FF01F880031CE000DA
:1056E0000000001801FF80F8201C021C20000000B0
:1056F000000000000000000000808080808080802A
:105700000102000090484848F00810100818FF10E7
:105710000808F01808101008F00808081008101001
:105720001008F0080810FF0810100818F048484842
:1057300070081010100808FE09001800F008081082
:10574000F84890908878FF100808F01800000018BA
:10575000F91800F98078FF406090081800000810E0
:10576000FF18F8100808F0100808F01800000018DA
:1057700000000018F8100808F01800000018F008E1
:105780000808F00810101008F8100808F0F80810C1
:105790001008F0080810F808101008F8F810081899
:1057A00000003048484890081010100808FE080013
:1057B0001810F8000000F8081010081818E000E0B1
:1057C00018000018000018E000E018E000E01800E1
:1057D000001800000018000008B0C03008100800D1
:1057E000081018E000E01880807800000888483829
:1057F00008101810101040BE01007880FF7801BE1C
:1058000040807800201010302020100000000000A0
:105810000000FE0202020202FE1810101010101802
:105820001C4A0A0E2060000205060509080203034F
:105830000406020402030504050506050505050521
:105840000202060606060B080708070606080702F6
:10585000050706090708060808070607070B0708D3
:1058600006030303060603050605060503060602EE
:1058700002050208060606060405030605090605D4
:10588000050302040702FEFE18181E1E001E1E005D
:105890000000000098F89E98F89E1C04041C040464
:1058A0003C72FF66CC0C183C100C1C22221CC0B8A9
:1058B0004640800000001C000C10100C80CC7E764E
:1058C000DE8CC0000C1C18181C0C1C081E1E0000CE
:1058D000F0FC061C7CC006FCF0C07C1C380E3804B2
:1058E000000000006060FCFC606000000C0C000028
:1058F00000005838C0C0C0C00000000000001818E8
:10590000C0FE3E1C1C00F8FE06FEF80C1C181C0411
:10591000080CFEFE00001C1C0C8EC67E3C1C1C18D5
:1059200018180C0E66FE9C0C1C181C0CE0F09CFE5B
:10593000FE800404041C1C043E3E36F6E60C1C18D3
:105940001C0CFCFE66EECC0C1C181C0C0686E6FE3D
:105950001E001C1C00009CFE66FE9C0C1C181C0CEF
:105960003C7E66FEFC0C1C181C0C303018183030C5
:105970005838E0E0B0B0B01800000404040CB0B037
:10598000B0B0B0B004040404040418B0B0B0E0E057
:105990000C04040400000C0EC6E63E1C000018189F
:1059A0000000E038CCEC7636B6F66C1CF01C306C9F
:1059B000DCD8D8DCDCD86C2000E0F89E9EF8E00053
:1059C0001C1C040404041C1CFEFE666666FE9C1C73
:1059D0001C1818181C0CF8FC0E06060E9C98040CDB
:1059E0001C18181C0C04FEFE06060EFCF81C1C18E5
:1059F000181C0C04FEFE666666661C1C1818181837
:105A0000FEFE666666061C1C00000000F8FC0E0622
:105A1000C6CEDCD8040C1C1818181C0CFEFE6060E6
:105A200060FEFE1C1C0000001C1CFEFE1C1C808076
:105A300000FEFE0C1C181C0CFEFE6070FC8E021C8E
:105A40001C0000041C18FEFE000000001C1C18189E
:105A50001818FEFE1EF800F01EFEFE1C1C000C189E
:105A60000C001C1CFEFE3CF080FEFE1C1C00000C0A
:105A70001C1CF8FC0E06060EFCF8040C1C18181C66
:105A80000C04FEFE66667E3C1C1C00000000F8FC58
:105A90000E06860EFCF8040C1C18181C0C14FEFED6
:105AA0006666E6BE3C001C1C0000040C18003C7E30
:105AB000666666EECC0C1C1818181C0C0606FEFE5A
:105AC000060600001C1C0000FEFE000000FEFE0C8E
:105AD0001C1818181C0C0EFEF800F8FE0E00041C12
